{
  "_format": "hh3-artifact-1",
  "contractName": "Uppies",
  "sourceName": "contracts/Uppies.sol",
  "abi": [
    {
      "inputs": [
        {
          "internalType": "address",
          "name": "_aavePoolInstance",
          "type": "address"
        },
        {
          "internalType": "address",
          "name": "_aaveOracle",
          "type": "address"
        }
      ],
      "stateMutability": "nonpayable",
      "type": "constructor"
    },
    {
      "anonymous": false,
      "inputs": [
        {
          "indexed": true,
          "internalType": "address",
          "name": "payee",
          "type": "address"
        },
        {
          "indexed": false,
          "internalType": "uint256",
          "name": "_uppiesIndex",
          "type": "uint256"
        }
      ],
      "name": "FilledUppie",
      "type": "event"
    },
    {
      "anonymous": false,
      "inputs": [
        {
          "indexed": true,
          "internalType": "address",
          "name": "payee",
          "type": "address"
        },
        {
          "indexed": false,
          "internalType": "uint256",
          "name": "_uppiesIndex",
          "type": "uint256"
        }
      ],
      "name": "NewUppie",
      "type": "event"
    },
    {
      "anonymous": false,
      "inputs": [
        {
          "indexed": true,
          "internalType": "address",
          "name": "payee",
          "type": "address"
        },
        {
          "indexed": false,
          "internalType": "uint256",
          "name": "_uppiesIndex",
          "type": "uint256"
        }
      ],
      "name": "RemovedUppie",
      "type": "event"
    },
    {
      "inputs": [
        {
          "components": [
            {
              "internalType": "address",
              "name": "recipient",
              "type": "address"
            },
            {
              "internalType": "address",
              "name": "aaveToken",
              "type": "address"
            },
            {
              "internalType": "address",
              "name": "underlyingToken",
              "type": "address"
            },
            {
              "internalType": "bool",
              "name": "canBorrow",
              "type": "bool"
            },
            {
              "internalType": "bool",
              "name": "canWithdraw",
              "type": "bool"
            },
            {
              "internalType": "uint256",
              "name": "maxDebt",
              "type": "uint256"
            },
            {
              "internalType": "uint256",
              "name": "topUpThreshold",
              "type": "uint256"
            },
            {
              "internalType": "uint256",
              "name": "topUpTarget",
              "type": "uint256"
            },
            {
              "internalType": "uint256",
              "name": "minHealthFactor",
              "type": "uint256"
            },
            {
              "components": [
                {
                  "internalType": "uint256",
                  "name": "maxBaseFee",
                  "type": "uint256"
                },
                {
                  "internalType": "uint256",
                  "name": "priorityFee",
                  "type": "uint256"
                },
                {
                  "internalType": "uint256",
                  "name": "topUpGas",
                  "type": "uint256"
                },
                {
                  "internalType": "uint256",
                  "name": "fillerReward",
                  "type": "uint256"
                }
              ],
              "internalType": "struct Uppies.UppieGasSettings",
              "name": "gas",
              "type": "tuple"
            }
          ],
          "internalType": "struct Uppies.Uppie",
          "name": "uppie",
          "type": "tuple"
        },
        {
          "internalType": "address",
          "name": "payee",
          "type": "address"
        },
        {
          "internalType": "uint256",
          "name": "underlyingTokenPrice",
          "type": "uint256"
        }
      ],
      "name": "_getAllowedDebtRemaining",
      "outputs": [
        {
          "internalType": "uint256",
          "name": "allowedDebtRemaining",
          "type": "uint256"
        }
      ],
      "stateMutability": "view",
      "type": "function"
    },
    {
      "inputs": [
        {
          "internalType": "address",
          "name": "user",
          "type": "address"
        },
        {
          "internalType": "address",
          "name": "asset",
          "type": "address"
        }
      ],
      "name": "_isUsedAsCollateral",
      "outputs": [
        {
          "internalType": "bool",
          "name": "",
          "type": "bool"
        }
      ],
      "stateMutability": "view",
      "type": "function"
    },
    {
      "inputs": [],
      "name": "aaveOracle",
      "outputs": [
        {
          "internalType": "address",
          "name": "",
          "type": "address"
        }
      ],
      "stateMutability": "view",
      "type": "function"
    },
    {
      "inputs": [],
      "name": "aavePoolInstance",
      "outputs": [
        {
          "internalType": "address",
          "name": "",
          "type": "address"
        }
      ],
      "stateMutability": "view",
      "type": "function"
    },
    {
      "inputs": [
        {
          "components": [
            {
              "internalType": "address",
              "name": "recipient",
              "type": "address"
            },
            {
              "internalType": "address",
              "name": "aaveToken",
              "type": "address"
            },
            {
              "internalType": "address",
              "name": "underlyingToken",
              "type": "address"
            },
            {
              "internalType": "bool",
              "name": "canBorrow",
              "type": "bool"
            },
            {
              "internalType": "bool",
              "name": "canWithdraw",
              "type": "bool"
            },
            {
              "internalType": "uint256",
              "name": "maxDebt",
              "type": "uint256"
            },
            {
              "internalType": "uint256",
              "name": "topUpThreshold",
              "type": "uint256"
            },
            {
              "internalType": "uint256",
              "name": "topUpTarget",
              "type": "uint256"
            },
            {
              "internalType": "uint256",
              "name": "minHealthFactor",
              "type": "uint256"
            },
            {
              "components": [
                {
                  "internalType": "uint256",
                  "name": "maxBaseFee",
                  "type": "uint256"
                },
                {
                  "internalType": "uint256",
                  "name": "priorityFee",
                  "type": "uint256"
                },
                {
                  "internalType": "uint256",
                  "name": "topUpGas",
                  "type": "uint256"
                },
                {
                  "internalType": "uint256",
                  "name": "fillerReward",
                  "type": "uint256"
                }
              ],
              "internalType": "struct Uppies.UppieGasSettings",
              "name": "gas",
              "type": "tuple"
            }
          ],
          "internalType": "struct Uppies.Uppie",
          "name": "uppie",
          "type": "tuple"
        }
      ],
      "name": "createUppie",
      "outputs": [],
      "stateMutability": "nonpayable",
      "type": "function"
    },
    {
      "inputs": [
        {
          "components": [
            {
              "internalType": "address",
              "name": "recipient",
              "type": "address"
            },
            {
              "internalType": "address",
              "name": "aaveToken",
              "type": "address"
            },
            {
              "internalType": "address",
              "name": "underlyingToken",
              "type": "address"
            },
            {
              "internalType": "bool",
              "name": "canBorrow",
              "type": "bool"
            },
            {
              "internalType": "bool",
              "name": "canWithdraw",
              "type": "bool"
            },
            {
              "internalType": "uint256",
              "name": "maxDebt",
              "type": "uint256"
            },
            {
              "internalType": "uint256",
              "name": "topUpThreshold",
              "type": "uint256"
            },
            {
              "internalType": "uint256",
              "name": "topUpTarget",
              "type": "uint256"
            },
            {
              "internalType": "uint256",
              "name": "minHealthFactor",
              "type": "uint256"
            },
            {
              "components": [
                {
                  "internalType": "uint256",
                  "name": "maxBaseFee",
                  "type": "uint256"
                },
                {
                  "internalType": "uint256",
                  "name": "priorityFee",
                  "type": "uint256"
                },
                {
                  "internalType": "uint256",
                  "name": "topUpGas",
                  "type": "uint256"
                },
                {
                  "internalType": "uint256",
                  "name": "fillerReward",
                  "type": "uint256"
                }
              ],
              "internalType": "struct Uppies.UppieGasSettings",
              "name": "gas",
              "type": "tuple"
            }
          ],
          "internalType": "struct Uppies.Uppie",
          "name": "uppie",
          "type": "tuple"
        },
        {
          "internalType": "uint256",
          "name": "_uppiesIndex",
          "type": "uint256"
        }
      ],
      "name": "editUppie",
      "outputs": [],
      "stateMutability": "nonpayable",
      "type": "function"
    },
    {
      "inputs": [
        {
          "internalType": "uint256",
          "name": "_uppiesIndex",
          "type": "uint256"
        },
        {
          "internalType": "address",
          "name": "payee",
          "type": "address"
        },
        {
          "internalType": "bool",
          "name": "isSponsored",
          "type": "bool"
        }
      ],
      "name": "fillUppie",
      "outputs": [],
      "stateMutability": "nonpayable",
      "type": "function"
    },
    {
      "inputs": [
        {
          "internalType": "address",
          "name": "",
          "type": "address"
        }
      ],
      "name": "nextUppieIndexPerUser",
      "outputs": [
        {
          "internalType": "uint256",
          "name": "",
          "type": "uint256"
        }
      ],
      "stateMutability": "view",
      "type": "function"
    },
    {
      "inputs": [
        {
          "internalType": "uint256",
          "name": "_uppiesIndex",
          "type": "uint256"
        }
      ],
      "name": "removeUppie",
      "outputs": [],
      "stateMutability": "nonpayable",
      "type": "function"
    },
    {
      "inputs": [
        {
          "internalType": "address",
          "name": "",
          "type": "address"
        },
        {
          "internalType": "uint256",
          "name": "",
          "type": "uint256"
        }
      ],
      "name": "uppiesPerUser",
      "outputs": [
        {
          "internalType": "address",
          "name": "recipient",
          "type": "address"
        },
        {
          "internalType": "address",
          "name": "aaveToken",
          "type": "address"
        },
        {
          "internalType": "address",
          "name": "underlyingToken",
          "type": "address"
        },
        {
          "internalType": "bool",
          "name": "canBorrow",
          "type": "bool"
        },
        {
          "internalType": "bool",
          "name": "canWithdraw",
          "type": "bool"
        },
        {
          "internalType": "uint256",
          "name": "maxDebt",
          "type": "uint256"
        },
        {
          "internalType": "uint256",
          "name": "topUpThreshold",
          "type": "uint256"
        },
        {
          "internalType": "uint256",
          "name": "topUpTarget",
          "type": "uint256"
        },
        {
          "internalType": "uint256",
          "name": "minHealthFactor",
          "type": "uint256"
        },
        {
          "components": [
            {
              "internalType": "uint256",
              "name": "maxBaseFee",
              "type": "uint256"
            },
            {
              "internalType": "uint256",
              "name": "priorityFee",
              "type": "uint256"
            },
            {
              "internalType": "uint256",
              "name": "topUpGas",
              "type": "uint256"
            },
            {
              "internalType": "uint256",
              "name": "fillerReward",
              "type": "uint256"
            }
          ],
          "internalType": "struct Uppies.UppieGasSettings",
          "name": "gas",
          "type": "tuple"
        }
      ],
      "stateMutability": "view",
      "type": "function"
    }
  ],
  "bytecode": "0x6080604052348015600e575f5ffd5b50604051611ce0380380611ce0833981016040819052602b916074565b5f80546001600160a01b039384166001600160a01b0319918216179091556001805492909316911617905560a0565b80516001600160a01b0381168114606f575f5ffd5b919050565b5f5f604083850312156084575f5ffd5b608b83605a565b9150609760208401605a565b90509250929050565b611c33806100ad5f395ff3fe608060405234801561000f575f5ffd5b506004361061009b575f3560e01c80636372b281116100635780636372b28114610246578063dbcb920714610259578063e09bfb6f14610286578063fd13de9914610299578063fd57a9c9146102ac575f5ffd5b806333328d8a1461009f57806334bc1c85146100b45780634403ebd0146101e6578063449ab5cd1461021057806362a61b5e14610233575b5f5ffd5b6100b26100ad3660046114f2565b6102bf565b005b61015e6100c2366004611530565b600260208181525f9384526040808520825292845292829020805460018201549282015460038301546004840154600585015460068601548851608081018a526007880154815260088801549a81019a909a526009870154988a0198909852600a9095015460608901526001600160a01b0393841697958416969383169560ff600160a01b8504811696600160a81b909504169492939192908a565b604080516001600160a01b039b8c168152998b166020808c019190915298909a16898b01529515156060808a0191909152941515608089015260a088019390935260c087019190915260e086015261010085015281516101208501529181015161014084015292830151610160830152909101516101808201526101a0015b60405180910390f35b5f546101f8906001600160a01b031681565b6040516001600160a01b0390911681526020016101dd565b61022361021e36600461155a565b610534565b60405190151581526020016101dd565b6100b2610241366004611729565b610647565b6001546101f8906001600160a01b031681565b610278610267366004611754565b60036020525f908152604090205481565b6040519081526020016101dd565b6100b261029436600461176f565b61086a565b6100b26102a73660046117ae565b610e17565b6102786102ba3660046117c9565b611049565b335f908152600360205260409020548181116102f65760405162461bcd60e51b81526004016102ed90611809565b60405180910390fd5b6040518061014001604052805f6001600160a01b031681526020015f6001600160a01b031681526020015f6001600160a01b031681526020015f151581526020015f151581526020015f81526020015f81526020015f81526020015f815260200160405180608001604052805f81526020015f81526020015f81526020015f81525081525060025f336001600160a01b03166001600160a01b031681526020019081526020015f205f8481526020019081526020015f205f820151815f015f6101000a8154816001600160a01b0302191690836001600160a01b031602179055506020820151816001015f6101000a8154816001600160a01b0302191690836001600160a01b031602179055506040820151816002015f6101000a8154816001600160a01b0302191690836001600160a01b0316021790555060608201518160020160146101000a81548160ff02191690831515021790555060808201518160020160156101000a81548160ff02191690831515021790555060a0820151816003015560c0820151816004015560e082015181600501556101008201518160060155610120820151816007015f820151815f015560208201518160010155604082015181600201556060820151816003015550509050506001816104da919061185f565b82036104fb576104eb60018261185f565b335f908152600360205260409020555b60405182815233907f957c37a128322037d105a6f4afddbed0d3cb167768f59f93fbcbb3b4d3fa8c929060200160405180910390a25050565b5f8054604051634417a58360e01b81526001600160a01b03858116600483015283921690634417a58390602401602060405180830381865afa15801561057c573d5f5f3e3d5ffd5b505050506040513d601f19601f820116820180604052508101906105a091906118be565b515f80546040516335ea6a7560e01b81526001600160a01b038781166004830152939450919216906335ea6a75906024016101e060405180830381865afa1580156105ed573d5f5f3e3d5ffd5b505050506040513d601f19601f820116820180604052508101906106119190611927565b60e0015161ffff1690505f610627826002611a51565b610632906001611a68565b6001901b929092161515925050505b92915050565b335f9081526003602052604090205481106106745760405162461bcd60e51b81526004016102ed90611809565b5f82602001516001600160a01b031663b16a19de6040518163ffffffff1660e01b8152600401602060405180830381865afa1580156106b5573d5f5f3e3d5ffd5b505050506040513d601f19601f820116820180604052508101906106d99190611a7b565b9050806001600160a01b031683604001516001600160a01b0316146107105760405162461bcd60e51b81526004016102ed90611a96565b826060015115806107275750600183610100015110155b6107435760405162461bcd60e51b81526004016102ed90611b09565b335f818152600260208181526040808420878552825292839020875181546001600160a01b039182166001600160a01b0319918216178355838a0151600184018054918416919092161790558489015193820180546060808c015160808d01511515600160a81b0260ff60a81b19911515600160a01b026001600160a81b03199094169890951697909717919091179590951691909117905560a0880151600382015560c0880151600482015560e08801516005820155610100880151600682015561012088015180516007830155918201516008820155818401516009820155910151600a90910155517f1731eab962af799552e48b1a951b7f24dc8018d1a9e65b514d383721af0382749061085d9085815260200190565b60405180910390a2505050565b6001600160a01b038083165f908152600260208181526040808420888552825280842081516101408101835281548716815260018201548716818501908152948201548088168285015260ff600160a01b820481161515606080850191909152600160a81b909204161515608080840191909152600384015460a084015260048085015460c0850152600585015460e085015260068501546101008501528551918201865260078501548252600885015496820196909652600984015481860152600a9093015490830152610120810191909152925190516370a0823160e01b8152929416916370a0823191610971918891016001600160a01b0391909116815260200190565b602060405180830381865afa15801561098c573d5f5f3e3d5ffd5b505050506040513d601f19601f820116820180604052508101906109b09190611b66565b604080840151845191516370a0823160e01b81526001600160a01b0392831660048201529293505f929116906370a0823190602401602060405180830381865afa158015610a00573d5f5f3e3d5ffd5b505050506040513d601f19601f82011682018060405250810190610a249190611b66565b90505f83608001518015610a3757508215155b90508080610a46575083606001515b610a925760405162461bcd60e51b815260206004820152601e60248201527f63616e277420776974686472617720616e642063616e7420626f72726f77000060448201526064016102ed565b8360c001518210610af55760405162461bcd60e51b815260206004820152602760248201527f757365722062616c616e6365206e6f742062656c6f7720746f702d75702074686044820152661c995cda1bdb1960ca1b60648201526084016102ed565b600154604085810151905163b3596f0760e01b81526001600160a01b0391821660048201525f92839283928392610b7592169063b3596f0790602401602060405180830381865afa158015610b4c573d5f5f3e3d5ffd5b505050506040513d601f19601f82011682018060405250810190610b709190611b66565b6110fb565b90508415610ba157610b8a888888848d61110d565b91955093509150610b9c88858c61114d565b610c1f565b5f610bad898c84611049565b9050805f03610bfe5760405162461bcd60e51b815260206004820152601d60248201527f6e6f7420616c6c6f77656420746f2064726177206d6f7265206465627400000060448201526064016102ed565b610c0b898289858e61110d565b91965094509250610c1d89868d61124d565b505b610c2e8861010001518b6112cd565b610cd45760405162461bcd60e51b8152602060048201526064602482018190527f546869732075707069652077696c6c2063617573657320746f2074686520757360448301527f657220746f20676f2062656c6f77207468652055707069652e6d696e4865616c908201527f7468466163746f72206f72207573657220697320616c72656164792062656c6f6084820152631dc81a5d60e21b60a482015260c4016102ed565b6040888101518951915163a9059cbb60e01b81526001600160a01b0392831660048201526024810185905291169063a9059cbb906044016020604051808303815f875af1158015610d27573d5f5f3e3d5ffd5b505050506040513d601f19601f82011682018060405250810190610d4b9190611b7d565b5088610dc757604080890151905163a9059cbb60e01b8152336004820152602481018590526001600160a01b039091169063a9059cbb906044016020604051808303815f875af1158015610da1573d5f5f3e3d5ffd5b505050506040513d601f19601f82011682018060405250810190610dc59190611b7d565b505b896001600160a01b03167f50b40bc91dd102bae1e13e2926fca0b62d0602f6ad667b7eb246af75be8d59588c604051610e0291815260200190565b60405180910390a25050505050505050505050565b5f3390505f82602001516001600160a01b031663b16a19de6040518163ffffffff1660e01b8152600401602060405180830381865afa158015610e5c573d5f5f3e3d5ffd5b505050506040513d601f19601f82011682018060405250810190610e809190611a7b565b9050806001600160a01b031683604001516001600160a01b031614610eb75760405162461bcd60e51b81526004016102ed90611a96565b82606001511580610ece5750600183610100015110155b610eea5760405162461bcd60e51b81526004016102ed90611b09565b6001600160a01b0382165f90815260036020526040902054610f0d816001611a68565b6001600160a01b038085165f8181526003602081815260408084209690965560028082528684208885528252928690208a5181549087166001600160a01b03199182161782558b830151600183018054918916919092161790558a87015193810180546060808e015160808f01511515600160a81b0260ff60a81b19911515600160a01b026001600160a81b031990941698909a169790971791909117959095169690961790955560a08a01519185019190915560c0890151600485015560e089015160058501556101008901516006850155610120890151805160078601559081015160088501558085015160098501550151600a9092019190915590517f1731eab962af799552e48b1a951b7f24dc8018d1a9e65b514d383721af0382749061103b9084815260200190565b60405180910390a250505050565b5f8054604051632fe4a15f60e21b81526001600160a01b0385811660048301528392169063bf92857c9060240160c060405180830381865afa158015611091573d5f5f3e3d5ffd5b505050506040513d601f19601f820116820180604052508101906110b59190611b98565b505050509150505f6110c78285611358565b9050808660a0015111156110ee57808660a001516110e5919061185f565b925050506110f4565b5f925050505b9392505050565b5f61064182662386f26fc10000611bde565b5f5f5f831561112e57611121888888611372565b92508290505f9150611142565b61113a88888888611399565b919450925090505b955095509592505050565b60208301516040516323b872dd60e01b81526001600160a01b03838116600483015230602483015260448201859052909116906323b872dd906064016020604051808303815f875af11580156111a5573d5f5f3e3d5ffd5b505050506040513d601f19601f820116820180604052508101906111c99190611b7d565b505f546040848101519051631a4ca37b60e21b81526001600160a01b039182166004820152602481018590523060448201529116906369328dec906064016020604051808303815f875af1158015611223573d5f5f3e3d5ffd5b505050506040513d601f19601f820116820180604052508101906112479190611b66565b50505050565b5f8054604085810151905163a415bcad60e01b81526001600160a01b039182166004820152602481018690526002604482015260648101939093528381166084840152169063a415bcad9060a4015f604051808303815f87803b1580156112b2575f5ffd5b505af11580156112c4573d5f5f3e3d5ffd5b50505050505050565b5f8215611350575f8054604051632fe4a15f60e21b81526001600160a01b0385811660048301529091169063bf92857c9060240160c060405180830381865afa15801561131c573d5f5f3e3d5ffd5b505050506040513d601f19601f820116820180604052508101906113409190611b98565b8910965061064195505050505050565b506001610641565b5f6305f5e1006113688385611a51565b6110f49190611bde565b5f818460e00151611383919061185f565b9050808310156113945750816110f4565b6110f4565b610120840151515f9081908190489081106114105760405162461bcd60e51b815260206004820152603160248201527f626173652066656520697320686967686572207468616e207468656e207468656044820152702075707069652e6d61784261736546656560781b60648201526084016102ed565b858860e00151611420919061185f565b91505f88610120015160400151828a6101200151602001516114429190611a68565b61144c9190611a51565b90505f6114598288611358565b905089610120015160600151816114709190611a68565b945061147c8585611a68565b9550858910156114e5578489116114d55760405162461bcd60e51b815260206004820181905260248201527f70617965652063616e74206166666f7264207468652066696c6c65722066656560448201526064016102ed565b8895506114e2858761185f565b93505b5050509450945094915050565b5f60208284031215611502575f5ffd5b5035919050565b6001600160a01b038116811461151d575f5ffd5b50565b803561152b81611509565b919050565b5f5f60408385031215611541575f5ffd5b823561154c81611509565b946020939093013593505050565b5f5f6040838503121561156b575f5ffd5b823561157681611509565b9150602083013561158681611509565b809150509250929050565b604051610140810167ffffffffffffffff811182821017156115c157634e487b7160e01b5f52604160045260245ffd5b60405290565b6040516101e0810167ffffffffffffffff811182821017156115c157634e487b7160e01b5f52604160045260245ffd5b801515811461151d575f5ffd5b803561152b816115f7565b5f6080828403121561161f575f5ffd5b6040516080810167ffffffffffffffff8111828210171561164e57634e487b7160e01b5f52604160045260245ffd5b6040908152833582526020808501359083015283810135908201526060928301359281019290925250919050565b5f6101a0828403121561168d575f5ffd5b611695611591565b90506116a082611520565b81526116ae60208301611520565b60208201526116bf60408301611520565b60408201526116d060608301611604565b60608201526116e160808301611604565b608082015260a0828101359082015260c0808301359082015260e08083013590820152610100808301359082015261171d83610120840161160f565b61012082015292915050565b5f5f6101c0838503121561173b575f5ffd5b611745848461167c565b946101a0939093013593505050565b5f60208284031215611764575f5ffd5b81356110f481611509565b5f5f5f60608486031215611781575f5ffd5b83359250602084013561179381611509565b915060408401356117a3816115f7565b809150509250925092565b5f6101a082840312156117bf575f5ffd5b6110f4838361167c565b5f5f5f6101e084860312156117dc575f5ffd5b6117e6858561167c565b92506101a08401356117f781611509565b929592945050506101c0919091013590565b60208082526022908201527f63616e742065646974207570706965207468617420646f65736e2774206578696040820152611cdd60f21b606082015260800190565b634e487b7160e01b5f52601160045260245ffd5b818103818111156106415761064161184b565b5f60208284031215611882575f5ffd5b6040516020810167ffffffffffffffff811182821017156118b157634e487b7160e01b5f52604160045260245ffd5b6040529151825250919050565b5f602082840312156118ce575f5ffd5b6110f48383611872565b80516fffffffffffffffffffffffffffffffff8116811461152b575f5ffd5b805164ffffffffff8116811461152b575f5ffd5b805161ffff8116811461152b575f5ffd5b805161152b81611509565b5f6101e0828403128015611939575f5ffd5b506119426115c7565b61194c8484611872565b815261195a602084016118d8565b602082015261196b604084016118d8565b604082015261197c606084016118d8565b606082015261198d608084016118d8565b608082015261199e60a084016118d8565b60a08201526119af60c084016118f7565b60c08201526119c060e0840161190b565b60e08201526119d2610100840161191c565b6101008201526119e5610120840161191c565b6101208201526119f8610140840161191c565b610140820152611a0b610160840161191c565b610160820152611a1e61018084016118d8565b610180820152611a316101a084016118d8565b6101a0820152611a446101c084016118d8565b6101c08201529392505050565b80820281158282048414176106415761064161184b565b808201808211156106415761064161184b565b5f60208284031215611a8b575f5ffd5b81516110f481611509565b6020808252604d908201527f74686520756e6465726c79696e6720746f6b656e2066726f6d2075707069652e60408201527f756e6465726c79696e67546f6b656e20646f65736e2774206d6174636820757060608201526c3834b29730b0bb32aa37b5b2b760991b608082015260a00190565b6020808252603c908201527f63616e742073657420746865206d696e4865616c7468466163746f722062656c60408201527f6f77203120696620626f72726f77696e6720697320656e61626c656400000000606082015260800190565b5f60208284031215611b76575f5ffd5b5051919050565b5f60208284031215611b8d575f5ffd5b81516110f4816115f7565b5f5f5f5f5f5f60c08789031215611bad575f5ffd5b50508451602086015160408701516060880151608089015160a090990151939a929950909790965094509092509050565b5f82611bf857634e487b7160e01b5f52601260045260245ffd5b50049056fea2646970667358221220107f8298cc37aeaafe53ded4195dc014bad8842b3293595b7a472c4e554279a464736f6c634300081c0033",
  "linkReferences": {},
  "deployedLinkReferences": {},
  "immutableReferences": {},
  "inputSourceName": "contracts/Uppies.sol",
  "buildInfoId": "990dac90289d951b52d0cf67627573be0fa4e0d8"
}